:020000040800F2
:1000000050050020490100084F190008511600084A
:100010004D190008E1010008DD1F00080000000084
:10002000000000000000000000000000631A00084B
:10003000E301000800000000611A0008651A0008CA
:100040006301000863010008630100086301000800
:1000500063010008630100086301000863010008F0
:1000600063010008630100086301000863010008E0
:1000700063010008630100086301000863010008D0
:1000800063010008630100086301000863010008C0
:1000900063010008630100086301000863010008B0
:1000A00063010008630100086301000863010008A0
:1000B000C91A0008D51A0008630100086301000886
:1000C0006301000863010008630100086301000880
:1000D00063010008D11F00086301000863010008E4
:1000E0006301000863010008630100086301000860
:1000F0006301000863010008630100086301000850
:10010000630100086301000863010008630100083F
:10011000791D0008630100086301000863010008FD
:10012000630100086301000863010008630100081F
:10013000DFF810D000F042F8004800472522000800
:10014000AFF300805005002006488047064800476E
:10015000FEE7FEE7FEE7FEE7FEE7FEE7FEE7FEE777
:10016000FEE7FEE7C71A000831010008D2B201E03D
:1001700000F8012B491EFBD270470022F6E710B5AC
:1001800013460A4604461946FFF7F0FF204610BD05
:1001900030B50B46014600202022012409E021FA57
:1001A00002F59D4205D303FA02F5491B04FA02F554
:1001B0002844151EA2F10102F1DC30BD064C074DAA
:1001C00006E0E06840F0010394E807009847103427
:1001D000AC42F6D3FFF7B0FFF84500081846000818
:1001E000FEE7704772B6FEE710B590F821100022C6
:1001F000022905D00421816380F82020012010BD50
:1002000001680B6823F00E030B6001680B6823F094
:1002100001030B6090F84030C46B012101FA03F335
:10022000636080F8211080F82020104610BD000087
:100230002DE9F05F90F821100024022903D0042159
:100240008163012485E001680A6822F00E020A60D9
:1002500001680A6822F001020A603F4E3E4FB21563
:10026000DFF8F4C0DFF8F090DFF8ECA0DFF8E8B0DA
:10027000DFF8E4E00168783F13011502ACF1640C8B
:10028000A9F15009AAF13C0AABF1280BAEF1140E0A
:100290004FF48018B14227D9B9420ED0614512D02F
:1002A00049451DD0514518D0594518D0714501D147
:1002B000424615E0294EB14201D1012210E0274EFD
:1002C0001436B14201D110220AE0244E2836B14240
:1002D00006D0224A3C32914201D11A4600E02A4619
:1002E0001E49091F0A602BE0B94213D0614517D09F
:1002F000494522D051451DD059451DD0714501D1E8
:1003000042461AE0B14202D14FF0807215E0134E1E
:10031000B14201D1012210E0104E1436B14201D198
:1003200010220AE00D4E2836B14206D00B4A3C326C
:10033000914201D11A4600E02A46074980394A60B5
:10034000012180F82110002180F82010416B01B1BB
:1003500088472046BDE8F09F800002400804024024
:1003600070B5044600F014F90546601C02D004483C
:100370000078044400F00CF9401BA042FAD370BD91
:10038000100000202DE9F84FDFF8C891002409F192
:10039000040A0AF1040B23460F270BF1040ED1E0E7
:1003A0000125A54006EA0502AA4276D1DFF8A8C1D8
:1003B0004E68A6EB0C0866452BD00DDC032E34D01E
:1003C00005DC36B3012E19D0022E2FD11BE0112EE1
:1003D00016D0122E2AD119E0B8F5881F19D006DCE4
:1003E000B8F5803F15D0B8F5801F1FD111E0B8F5E2
:1003F000001F0ED0B8F5041F18D10AE0CB6815E035
:10040000CB681B1D12E0CB6808330FE0CB680C33C0
:100410000CE08B682BB1012B4FF0080303D0456132
:1004200004E0042302E0056100E00023FF2A01D874
:10043000064601E000F104064FEA840501D9A5F162
:100440002005D6F8008007FA05FC28EA0C0803FA14
:1004500005F548EA0508C6F800804D68ED0070D53E
:100460003E4DAE6946F00106AE61AD6924F003066B
:1004700005F0010500953A4D06EB050CDCF8085037
:10048000A607360F07FA06F825EA0805DFF8D48034
:10049000404503D14FF0000825E052E0DFF8C88066
:1004A000404502D14FF001081DE0DFF8C080404513
:1004B00002D14FF0020816E0DFF8B480404502D1C7
:1004C0004FF003080FE0DFF8AC80404502D14FF059
:1004D000040808E0DFF8A080404502D14FF005088D
:1004E00001E04FF0060808FA06F848EA0508CCF8DB
:1004F00008804D68D9F80060ED034D4601D51643DC
:1005000000E096432E604D68DAF80060AD03554672
:1005100001D5164300E096432E604D68DBF800607D
:10052000ED025D4601D5164300E096432E604D680E
:10053000DEF80060AD02754601D5164300E0964333
:100540002E60641C0A681646E2407FF429AFBDE8BD
:10055000F88F00000004014000001110001002405C
:100560000000014000080140000C01400010014063
:100570000014014000180140001C01408068084040
:1005800000D0012070470AB1016170470904FBE700
:100590000148806870470000100000200248816810
:1005A000027811448160704710000020074810B5A0
:1005B000016841F010010160032000F079F800208B
:1005C00000F006F800F024F8002010BD00200240E2
:1005D00070B50D4D04464FF47A712878B1FBF0F0F8
:1005E0000A490968B1FBF0F000F0F0FA48B9102CA4
:1005F00007D200222146501E00F03AF800206C601D
:1006000070BD012070BD0000100000201C00002003
:100610000E4808B5816941F001018161816901F0ED
:1006200001010091C16941F08051C161C06900F0D0
:1006300080500090052000F03BF80548416821F00B
:10064000E06141F00071416008BD0000001002400F
:1006500000000140002809DB00F01F020121914049
:100660004009800000F1E020C0F800117047000050
:10067000F0B40E4B1B680C46C3F30223C3F107050D
:10068000042D00D90425191D072901D2002300E0FB
:10069000DB1E012606FA05F1491E214099409E40C5
:1006A000761E16403143F0BC01F0AABC0CED00E010
:1006B000064900F0070208684FF6FF03184040EAB9
:1006C0000220034A10430860704700000CED00E070
:1006D0000000FA052DE9F0470F46050061D0434EB2
:1006E000306800F00700B84209D2306820F00700F7
:1006F00038433060306800F00700B84251D12868B4
:100700003B4C810712D5400703D5606840F4E06098
:1007100060602878000703D5606840F4605060602E
:100720006068A96820F0F000084360602878C0077E
:1007300028D06868012810D02168022810D08907C5
:1007400000292EDA616821F0030101436160FFF79F
:100750001FFF804641F288390DE021688903EFE7E9
:100760008901EDE7FFF714FFA0EB0801494502D925
:100770000320BDE8F0876068696800F00C00B0EB0A
:10078000810FEFD1306800F00700B8420BD9306814
:1007900020F0070038433060306800F00700B842AE
:1007A00001D00120E5E72878400705D56068E968B1
:1007B00020F4E060084360602878000706D5606890
:1007C000296920F4605040EAC100606000F038F808
:1007D0006168084AC1F30311515CC84006490860CA
:1007E00006480068FFF7F4FE0020C2E70020024040
:1007F00000100240E04500081C000020140000200A
:100800000448054900684968044AC1F30221515C63
:10081000C84070471C00002000100240F04500084E
:100820000448054900684968044AC1F3C221515C83
:10083000C84070471C00002000100240F04500082E
:1008400012A185B00FC98DE80F0014A0144A0068EA
:1008500004905168134801F00C03042B10D0082BAE
:100860000ED1C1F38343C9031DF803000AD55168B3
:1008700004AAC1F34041515C0A4A5043B0FBF1F075
:1008800005B0704708494843FAE700000203040531
:10089000060708090A0B0C0D0E0F101001020000CC
:1008A0000010024000127A0000093D002DE9F84FC7
:1008B000040070D02078C04DC00749D06868C0F3EC
:1008C0008100012807D06868C0F38100022809D19F
:1008D0006868C00306D52868800339D56068002899
:1008E000E7D035E06068B0F5803F0BD010B1B0F5CF
:1008F000A02F11D0286820F480302860286820F4C8
:10090000802002E0286840F480302860606890B160
:10091000FFF73EFE06460AE0286840F48020286083
:10092000F0E700BFFFF734FE801B642873D8286807
:100930008003F7D50CE0FFF72BFE064605E000BF6D
:10094000FFF726FE801B6428F0D828688003F7D4C0
:1009500020789A4E80074FF001094FF0000839D5F2
:10096000686810F00C0F07D06868C0F38100022897
:1009700009D16868C00306D42868800714D52069A7
:10098000012808D110E02069B0B1C6F80090FFF747
:10099000FFFD074605E00AE1FFF7FAFDC01B02284C
:1009A000C4D828688007F7D52868616920F0F80066
:1009B00040EAC10028600DE0C6F80080FFF7E8FDBE
:1009C000074604E0FFF7E4FDC01B022823D828688F
:1009D0008007F7D4207800072CD57948A169D9B1D0
:1009E000C0F80090FFF7D4FD074604E0FFF7D0FD04
:1009F000C01B02280FD8686A8007F7D571484FF4EA
:100A0000FA510068B0FBF1F0009000BF0098411E61
:100A10000091FAD20EE080E0C0F80080FFF7B8FD48
:100A2000074604E0FFF7B4FDC01B022875D8686ACA
:100A30008007F7D42078400760D5E8690027C00018
:100A400008D4E86940F08050E861E869012700F0C7
:100A5000805000905C480168C90513D40168834642
:100A600041F480710160FFF793FD824606E000BF0C
:100A7000FFF78EFDA0EB0A0064284ED8DBF80000DB
:100A8000C005F5D5E06801280AD008B1052813D0C3
:100A9000286A20F001002862286A20F0040002E0A1
:100AA000286A40F001002862E06841F2883B98B172
:100AB000FFF76EFD82460BE0286A40F004002862D2
:100AC000EEE700BFFFF764FDA0EB0A0159455AD8D5
:100AD000286A8007F6D50CE0FFF75AFD824605E04C
:100AE000FFF756FDA0EB0A0159454CD8286A80074C
:100AF000F6D41FB1E86920F08050E861E06988B35E
:100B00006968C1F38101022944D00228C6F86080D7
:100B100004D0FFF73DFD044638E034E0FFF738FD30
:100B2000074604E0FFF734FDC01B02282BD82868D5
:100B30008001F7D4206AB0F5803F05D16868A168CC
:100B400020F4003008436860D4E90801084369686C
:100B500021F4741108436860C6F86090FFF718FD2F
:100B6000044606E025E000BFFFF712FD001B022847
:100B700009D828688001F7D51BE000BFFFF708FD02
:100B8000001B022802D90320BDE8F88F28688001E5
:100B9000F4D40EE00128F7D06868226A00F48031AE
:100BA000914204D1616A00F47010884201D00120A2
:100BB000EAE70020E8E7000000100240000042429F
:100BC000800442421C0000200070004010B5401E0E
:100BD000B0F1807F01D3012010BD4FF0E0246061AF
:100BE0000F21601701F00CFA0020A061072020619E
:100BF000002010BD7047704770B590F83C20012A66
:100C00002CD0012480F83C40022280F83D2003686B
:100C10005A689D6822F070060A6832435A60104B89
:100C200002689A420ED00F4B9A420BD0B2F1804F1D
:100C300008D00D4B9A4205D00C4B9A4202D00C4B77
:100C40009A4204D1496825F080031943916080F8E5
:100C50003D40002180F83C10084670BD022070BD68
:100C6000002C014000340140000400400008004016
:100C7000000C004010B5040003D094F83D0010B102
:100C800007E0012010BD002084F83C00204600F061
:100C90001FF8022084F83D00211D206800F020FF8D
:100CA000012084F8460084F83E0084F83F0084F870
:100CB000400084F8410084F8420084F8430084F83E
:100CC000440084F8450084F83D00002010BD000079
:100CD00008B501681448B1F1804F14D0134A91420D
:100CE00020D1C16941F00201C161C069002200F058
:100CF0000200009011461D20FFF7BAFC1D20BDE840
:100D00000840FFF7A7BCC16941F00101C161C0699A
:100D1000002200F00100009011461C20FFF7A8FC03
:100D20001C20ECE708BD0000001002400004004059
:100D30000168CA6822F00102CA6001680A6A41F2C9
:100D400011131A4207D10A6A9B101A4203D10A688A
:100D500022F001020A60012180F83D100020704756
:100D600070B5044690F83C00012817D0012584F89E
:100D70003C50022084F83D002068826822F077020F
:100D800022F47F4282600868502830D00DDC202891
:100D90004DD005DC98B310283BD148E0022070BD4F
:100DA000302844D0402834D139E0602828D0702839
:100DB00006D0B0F5805F2CD0B0F5005F29D10AE0F5
:100DC000CB68D1E90121206800F0DDFE2068816850
:100DD00041F0770109E0CB68D1E90121206800F0FA
:100DE000D2FE2068816841F48041816011E0CA68C8
:100DF0004968206800F09CFF5021206807E016E059
:100E0000CA684968206800F0A4FF6021206800F0EB
:100E1000C4FE84F83D50002084F83C0070BDCA68D0
:100E20004968206800F084FF40212068EFE72268CD
:100E300001461046EBE7704770B50446006801694B
:100E40004FF00005C943890715D4C168C943890714
:100E500011D4E91E01610120207720688069800794
:100E6000204602D0FFF7E7FF04E000F0BDF820467F
:100E700000F04CF9257720680169C943490717D468
:100E8000C168C943490713D46FF00401016102200E
:100E900020772068806910F4407F204602D0FFF759
:100EA000CAFF04E000F0A0F8204600F02FF92577F3
:100EB00020680169C943090716D4C168C9430907F5
:100EC00012D46FF008010161042020772068C06906
:100ED0008007204602D0FFF7AEFF04E000F084F860
:100EE000204600F013F9257720680169C943C90637
:100EF00017D4C168C943C90613D46FF0100101614A
:100F0000082020772068C06910F4407F204602D076
:100F1000FFF791FF04E000F067F8204600F0F6F8D4
:100F2000257720680169C943C90708D1C168C94349
:100F3000C90704D1891E0161204600F043F92068E9
:100F40000169C943090609D4C168C943090605D422
:100F50006FF0800101612046FFF74CFE20680169B7
:100F6000C943490609D4C168C943490605D46FF08D
:100F700040010161204600F039F920680169C94348
:100F800089060BD4C168C943890607D46FF02001D4
:100F900001612046BDE87040FFF72DBE70BD000026
:100FA00000B585B000210091019102910391006884
:100FB000B0F1804F11D10A48816941F0040181618B
:100FC0008069694600F00400049006200090022029
:100FD000019003900348FFF7D5F905B000BD00006C
:100FE0000010024000080140704770B5044690F8B8
:100FF0003C000D4601280AD0012084F83C0042B193
:10100000042A18D0082A2AD00C2A4DD139E002200F
:1010100070BD206800F0CAFD2068816941F00801B8
:1010200081612068816921F0040181612068816902
:101030002A69114311E0206800F0E8FD2068816909
:1010400041F4006181612068816921F480618161DE
:10105000206881692A6941EA0221816124E02068CF
:1010600000F00AFE2068C16941F00801C1612068F2
:10107000C16921F00401C1612068C1692A69114375
:1010800011E0206800F02CFE2068C16941F4006185
:10109000C1612068C16921F48061C1612068C169B2
:1010A0002A6941EA0221C161002084F83C0070BD38
:1010B00010B5040003D094F83D0010B107E0012002
:1010C00010BD002084F83C00204600F01EF80220ED
:1010D00084F83D00211D206800F002FD012084F805
:1010E000460084F83E0084F83F0084F8400084F80D
:1010F000410084F8420084F8430084F8440084F8F6
:10110000450084F83D00002010BD70477047000086
:1011100010B50446022249B104290ED0082913D083
:1011200094F84100012816D0012010BD94F83E002B
:101130000128F9D184F83E200FE094F83F000128FF
:10114000F2D184F83F2008E094F840000128EBD168
:1011500084F8402001E084F841200122206800F05A
:1011600005FD13492068134A884201D0904203D1FB
:10117000436C43F400434364206888420DD090429E
:101180000BD0B0F1804F08D00B49884205D00B49F5
:10119000884202D00A49884204D1816801F00701DF
:1011A000062903D0016841F001010160002010BD53
:1011B000002C0140003401400004004000080040C1
:1011C000000C004007484179491CC9B241716429AB
:1011D00006D101210170002141710348FFF7A8BD2C
:1011E0007047000007000020800000207047704713
:1011F00070470000F8B5026804461068D16853696A
:1012000010F00F0F4FF0000553D003F0010601F46A
:10121000907737435FD0C20705D0CA0503D5226C4B
:1012200042F001022264420705D5DA0703D0226C9E
:1012300042F002022264820705D5DA0703D0226C4D
:1012400042F004022264020707D501F02002324373
:1012500003D0226C42F008022264226C002A34D0AF
:10126000800604D5880602D5204600F0ABFD206834
:101270004069216CC0F38010090700D430B32046C8
:1012800000F088FD2068416949061BD5416921F0BD
:1012900040014161A06BA8B158494163A06BFEF7C2
:1012A000C7FF002811D0A06B416B01B0BDE8F04032
:1012B000084783060FD58B060DD52046BDE8F840BC
:1012C00000F080BD2046FFF793FFF8BD2046FFF7F2
:1012D0008FFF2564F8BD266B2023012E52D1C60650
:1012E00050D5CE064ED51068506800905069400623
:1012F0002AD5A16B086840680004000CEAD0A68DCE
:101300008642E7D9E0858869202818D0D06820F483
:101310008070D0602068416921F00101416120683E
:10132000416921F04001416184F83E302563206825
:10133000C16821F01001C160A06BFEF755FFA08DC0
:10134000E18D401A81B219E0A08DE18D401A81B281
:10135000E08D0028BED00029BCD0D06820F4907069
:10136000D0602068426922F00102426184F83E3078
:1013700025632068C26822F01002C2602046FFF791
:1013800036FFF8BD05062BD50D0629D594F83D008E
:101390002128F6D1A068B0F5805F01D12069B0B1F5
:1013A000206A411C2162216800784860E08C401E60
:1013B0000004000CE084E4D12068C16821F08001C1
:1013C000C1602068C16841F04001C160F8BD206A79
:1013D0000088C0F308005060206A801C2062E5E7A6
:1013E0004006F3D54806F1D5D168204621F04001EA
:1013F000D16084F83D3000F02AF9F8BD851D000861
:1014000070B5040004D094F83D00002510B106E04A
:10141000012070BD84F83C50204600F023F82420C1
:1014200084F83D002068C16821F40051C160204665
:1014300000F024FD2068016921F4904101612068D9
:10144000416921F02A0141612068C16841F40051DD
:10145000C1602564202084F83D0084F83E0000200F
:1014600070BD000070B586B0002400940194029411
:10147000039403682E482D4E051502210322B34222
:1014800026D1C36943F40023C361C36903F4002375
:101490000493836943F0100383618069CDE90051AF
:1014A00000F01000CDE90320224D69462846FEF7E2
:1014B00069FFE814CDE90004694628460294FEF766
:1014C00061FF002201213420FFF7D2F8342028E008
:1014D000194EB34227D1836943F480438361836902
:1014E00003F480430493836943F0040383618069B8
:1014F000039200F0040004907015CDE900010F4E36
:1015000069463046FEF73EFFCDE900546946304655
:101510000294FEF737FF002202212520FFF7A8F8EA
:101520002520FFF797F806B070BD0000004C004082
:101530000010024000100140003801400008014046
:1015400090F83E30202B0ED159B152B190F83C307A
:10155000012B08D0012380F83C300023036300F006
:10156000E9BC0120704702207047000010B50068F8
:101570000749884203D10748007900F0E9F9054995
:101580000122BDE81040091D0348FFF7D9BF000044
:10159000004C004007000020C80000202DE9F8435F
:1015A000044690F83D001F4616460D4620284CD1B3
:1015B000C5B1BEB194F83C00012846D0012084F8A2
:1015C0003C004FF00008C4F84080212084F83D0022
:1015D000FEF7DEFFA6848146E684A068B0F5805F52
:1015E00003D004E00120BDE8F883206928B12E462D
:1015F0005FF0000584F83C800EE00026FAE78021C9
:10160000204600F0B2FCA0B9AEB116F8010B21687B
:101610004860E08C401EE084E08C4B464FF00002B6
:1016200000970028EBD14FF04001204600F09DFCD0
:1016300030B10320D7E735F8020BC0F30800E6E726
:10164000202084F83D000020CDE70220CBE7704742
:10165000FEE700002DE9F04F85B0002652480096C5
:10166000019602960396816941F04001816181698A
:1016700001F040010491816941F08001816181693B
:1016800001F080010491816941F004018161816967
:1016900001F004010491816941F4807181618169E3
:1016A00001F480710491816941F0100181618169C7
:1016B00001F010010491816941F0080181618069A4
:1016C000DFF8E89000F008000490002243F6204183
:1016D0004846FEF758FFDFF8D88000224FF4C0716B
:1016E0004046FEF750FFDFF8CCA00022F021504624
:1016F000FEF749FFDFF8C0B0002220215846FEF770
:1017000042FF202701250224CDE90264CDE90075BE
:1017100069464846FEF736FE4220CDE90006694696
:1017200002954046FEF72EFE3C20CDE900066946B4
:1017300002944046FEF726FE80200090CDE9015439
:10174000694640460394FEF71DFEE00103948DE8D0
:10175000610069464046FEF715FE6002CDE90005CE
:10176000CDE9025469464846FEF70CFE4FF460503E
:101770000090CDE90154694648460394FEF702FE05
:10178000F02003948DE8610069465046FEF7FAFDAB
:10179000CDE90264CDE9007569465846FEF7F2FDD1
:1017A00005B0BDE8F08F00000010024000180140B5
:1017B000001C014000200140000C014010B58EB01B
:1017C00000240794089409940A940B941C216846F9
:1017D0000C94FEF7D2FC26484FF0804101600921AD
:1017E000C0E9011440F24911C0E903148461FFF714
:1017F00041FA08B1FEF7F6FC4FF48050079007A9B4
:101800001B48FFF7ADFA08B1FEF7ECFC1848FFF7EC
:101810004FFC08B1FEF7E6FC0B940BA914480C949E
:10182000FFF7EAF908B1FEF7DDFC6020CDE900041E
:10183000042002460490694602940D48FFF7D5FB48
:1018400008B1FEF7CFFC082269460948FFF7CDFB37
:1018500008B1FEF7C7FC04210548FFF759FC082131
:101860000348FFF755FC0248FFF79AFB0EB010BD86
:101870003800002010B586B0002417480094019469
:1018800002940394049413490594016040F2CF211B
:10189000C0E9011442F20F71C0E903148461FFF73B
:1018A000E9F908B1FEF79EFC4FF4805000906946BC
:1018B0000948FFF755FA08B1FEF794FC049404A90F
:1018C00005480594FFF798F9002801D0FEF78AFC37
:1018D00006B010BD00040040800000200C4810B588
:1018E0000A4901604FF4E1314160002181600C221E
:1018F000C160C0E904128161C161FFF781FD002868
:1019000003D0BDE81040FEF76DBC10BD004C004098
:10191000C80000200C4810B50A4901604FF4E131BD
:101920004160002181600C22C160C0E90412816124
:10193000C161FFF765FD002803D0BDE81040FEF748
:1019400051BC10BD003801400C010020FEE7FEE74D
:101950002DE9F0413A4C0127214666790A79394D43
:10196000511CCBB2002136B1012E11D0022E2BD04A
:10197000032E4FD00EE02C280CD1677125F81200F1
:101980002371BDE8F041002220212F48FEF7FBBD66
:1019900012280BD0617121715FF0000025F8101042
:1019A000401CC0B20A28F9D3BDE8F08100222021F2
:1019B0002648FEF7E8FD022060712079122125F803
:1019C0001010401C2071EFE725F8120023710A2B3C
:1019D00001D25B28E8D10320607105EB4300A771B9
:1019E00010F80A1D2170827862700279A2708079E5
:1019F000E07017A000F0F4FA617815A000F0F0FA9A
:101A0000A17813A000F0ECFAE178BDE8F04112A053
:101A100000F0E6BA05EB420030F8020C5B280AD071
:101A2000617121715FF0000025F81010401CC0B2F8
:101A30000A28F9D3B8E7A17121716171B4E70000F8
:101A40000000002024000020000C0140001801408C
:101A500025640D202020000025640D0A00000000F0
:101A600070477047FEF79ABD30B58FB028216846A1
:101A7000FEF783FB14210AA8FEF77FFB012108046F
:101A8000CDE900100024029402250491CDE907500D
:101A90004FF4E01009906846FEF708FF08B172B6EF
:101AA000FEE70F20CDE90A054FF48060CDE90C4038
:101AB00002210AA80E94FEF70DFE002801D072B68E
:101AC000FEE70FB030BD70470148FFF7B5B9000021
:101AD000380000200148FFF7AFB900008000002067
:101AE000F0B502681C4B1D4D1D4E1E4F1E4C4FF095
:101AF000804C984209D0A04207D0604505D0A8424A
:101B000003D0B04201D0B84204D122F0700E4A682E
:101B100042EA0E02984209D0A04207D0604505D0A3
:101B2000A84203D0B04201D0B84203D122F440759C
:101B3000CA682A434D6922F080022A4302608A68FB
:101B4000C2620A688262984201D0A04201D109694A
:101B5000016301214161F0BD002C014000040040FF
:101B600000080040000C00400034014010B501F0B6
:101B70001F030121046A99408C430462016A9A4060
:101B80001143016210BD10B5846842EA032224F4B7
:101B90007F440A432243826010BD826822F07002B3
:101BA0000A4342F00701816070470000F0B5026A05
:101BB00022F001020262036A42688469124E24F034
:101BC00073050C682C4323F002058B682B430D4DE5
:101BD000A84201D0B04205D123F00807CB683B43AF
:101BE00023F00403A84201D0B04205D14D6922F48C
:101BF000407215438A692A4342608461496841639F
:101C00000362F0BD002C014000340140F0B5026ACF
:101C100022F010020262026A436884690D6824F4AB
:101C2000E64444EA05248D6822F0200242EA0512C7
:101C30000F4D104EA84201D0B04206D1CF6822F01D
:101C4000800242EA071222F04002A84201D0B042CC
:101C500007D14D6923F4406343EA85038D6943EA64
:101C6000850343608461496881630262F0BD0000BE
:101C7000002C014000340140F0B5026A22F4807269
:101C80000262026A4368C46922F4007224F0730598
:101C90000C68124E2C438D6842EA05220E4DA84274
:101CA00001D0B04206D1CF6822F4006242EA072296
:101CB00022F48062A84201D0B04207D14D6923F4DA
:101CC000405343EA05138D6943EA05134360C46139
:101CD0004968C1630262F0BD002C0140003401403C
:101CE00030B5026A22F480520262046A4268C36913
:101CF0000D6823F4E64343EA05238D6824F4005479
:101D000044EA0534084DA84202D0084DA84204D147
:101D10004D6922F4804242EA85124260C3614968FB
:101D20000164046230BD0000002C01400034014019
:101D300010B5036A046A24F001040462846924F083
:101D4000F00444EA021423F00A020A4384610262A6
:101D500010BD10B5036A23F0100303628369046A9F
:101D600023F4704343EA023224F0A00343EA011152
:101D70008261016210BD00000148FFF73BBA00001C
:101D8000C800002010B5406A0021C185C184FFF75A
:101D90002FFA10BD0168CA6822F49072CA60016807
:101DA0004A6922F001024A61016B012904D10168EC
:101DB000CA6822F01002CA60202180F83E1000217B
:101DC0000163704708B590F83E10222901D0022027
:101DD00008BD82684FF480539A4201D1016921B154
:101DE000816A9A421BD04AB10AE00268816A52684D
:101DF000C2F308020A80816A891C08E0026972B194
:101E00000268526802F07F020A70816A491C81628E
:101E1000C18D491E0904090CC18503D019E002686F
:101E20005268F1E70168CA6822F02002CA600168BE
:101E3000CA6822F48072CA6001684A6922F001020D
:101E40004A61202180F83E10016B012903D0FFF781
:101E50008DFB002008BD002101630168CA6822F0E3
:101E60001002CA6001680A68D20602D50A68496889
:101E70000091818DFFF7BBF9EBE7000070B50446D8
:101E800000680169E26821F4405111430161216950
:101E9000A0680843616908432168CA6841F20C637D
:101EA0009A430243CA6020684169A26921F44071E3
:101EB000114341611E492068884202D1FEF7B0FCFF
:101EC00001E0FEF79DFC00EBC00101EB0012606831
:101ED00064218000B2FBF0F3B3FBF1F36FF018065E
:101EE0007343B2FBF0F5B2FBF0F605EB830532234A
:101EF00003EB0515B5FBF1F5B6FBF1F605F0F005C2
:101F000005EB0615B2FBF0F6B2FBF0F0B0FBF1F01A
:101F10006FF01802504306EB800003EB0010B0FB9B
:101F2000F1F0216800F00F002844886070BD0000C7
:101F30000038014081628285C2850021016422222D
:101F400080F83E2080F83C100168CA6842F4807234
:101F5000CA6001684A6942F001024A610068C168CA
:101F600041F02001C160002070472DE9F041984602
:101F700017460E460446069D1DE0681C1BD02DB179
:101F8000FEF706FBA0EB0800A84214D92068C16840
:101F900021F4D071C1602068416921F001014161E3
:101FA000202084F83D0084F83E00002084F83C00A6
:101FB0000320BDE8F0812068006836EA000004D004
:101FC0000020B842D9D00020F3E70120F9E7000053
:101FD0000148FFF70FB900000C010020FEE70000E8
:101FE0000FB4054B10B503A9044A029800F028F875
:101FF00010BC5DF814FB00009521000820000020B3
:102000000907090E002804DB00F1E02080F8001425
:10201000704700F00F0000F1E02080F8141D7047B9
:1020200002E008C8121F08C1002AFAD170477047A1
:10203000002001E001C1121F002AFBD170470000FF
:102040002DE9FF4F89B09B460446002506E0252870
:102050000BD05A460B999047641C6D1C20780028C1
:10206000F5D10DB02846BDE8F08F0027B846012213
:10207000474900E0074314F8013F203B02FA03F010
:102080000842F7D120782E2819D114F8010F47F013
:1020900004072A280ED06FF02F022078A0F130011B
:1020A00009290CD808EB880102EB410100EB01087B
:1020B000641CF2E70A98641C50F8048B0A9020789C
:1020C0000028CED0642808D0692806D075281ED0F4
:1020D0005A460B9990476D1C58E00A994FF00A092F
:1020E00001C90A91002802DA40422D2102E0390597
:1020F00004D52B218DF82010012103E0F90704D02D
:102100002021F7E78A4608AE0DE00021FAE70A9998
:102110004FF00A0901C90A91F7E74946FEF738F876
:10212000303106F8011D0028F7D1ADEB060000F1B3
:102130002009780701D44FF00108C84502DDA8EB5B
:10214000090000E000208046002706E008A85A4663
:10215000C05D0B9990476D1C7F1C5745F6DB04E072
:1021600030205A460B9990476D1CB8F10001A8F138
:102170000108F5DC05E016F8010B5A460B9990476B
:102180006D1CB9F10001A9F10109F4DC641C65E7DB
:102190000928010013B54FF6FF7301226946024872
:1021A000FFF7FCF900981CBD0C01002010B54FF0A2
:1021B00080418863C8630B4C012210212046FEF742
:1021C000E2F9002220212046FEF7DDF9012240211C
:1021D0002046FEF7D8F920460022BDE810408021B5
:1021E000FEF7D1B90020014010B54FF0804188635F
:1021F000C8630B4C002210212046FEF7C4F90122CF
:1022000020212046FEF7BFF9002240212046FEF79C
:10221000BAF920460122BDE810408021FEF7B3B98B
:102220000020014008B5FEF7C1F9FFF71DFCFFF7DC
:1022300011FAFFF753FBFFF76DFBFFF7BFFAFFF74C
:1022400019FB0122FD49FE48FFF77AF9FB490122FB
:10225000491EFC48FFF774F94FF0000A0122554669
:1022600054465646D04657469102F748CDF800A04E
:10227000FEF789F9DFF8D4B3DFF8D49399F80000BA
:10228000022814D002E100224FF48061EE48FEF7EC
:102290007AF94FF4FA70FEF763F801229102EA48E6
:1022A000FEF771F9E5490120091F887004E0E34851
:1022B000001F80780028E6D099F80000022865D138
:1022C00020215846FEF75AF901285FD1BAF1000FD4
:1022D0000CD05BE04620FFF787FF4FF44870FEF715
:1022E0003FF8D6480121001F417004E0D348001F89
:1022F00040780028EED04620FFF776FF4021584670
:10230000FEF73CF9012803D10021D22002F0D2F8D7
:1023100002215846FEF732F9012803D10021D220CC
:1023200002F0AAF840215846FEF728F901280ED1FC
:1023300002215846FEF722F9012808D16420FEF751
:102340000FF802F02DF94FF41670FEF709F804218A
:102350005846FEF713F901280BD008215846FEF71E
:102360000DF9012805D010215846FEF707F901287C
:102370000CD102F0BDF80122D102B348FEF703F9F7
:102380004FF47A70FDF7ECFF4FF0010A2021584618
:10239000FEF7F4F818B9BAF1010F00D115B1012D0B
:1023A00013D03DE000224FF40061A748FEF7EBF8A0
:1023B0004FF4FA70FDF7D4FF8021084602F0B2F81E
:1023C0004FF49660FDF7CCFF01254EBB4620FFF78A
:1023D0000BFF40215846FEF7D1F801280CD102210D
:1023E0005846FEF7CBF8012806D102F0B9F84FF4B1
:1023F0001670FDF7B5FF012640215846FEF7BEF8DE
:10240000012803D10021D22002F054F802215846BD
:10241000FEF7B4F8012803D10021D22002F02CF8F5
:10242000012E33D14620FFF7DFFE40215846FEF74C
:10243000A5F8012803D10021D22002F03BF80221A7
:102440005846FEF79BF8012803D10021D22002F064
:1024500013F804215846FEF791F801280BD0082103
:102460005846FEF78BF8012805D010215846FEF794
:1024700085F801280AD102F03BF8012211037248C5
:10248000FEF781F842F22830FDF76AFF99F8000064
:10249000012814D012E100224FF480616A48FEF74F
:1024A00072F84FF4FA70FDF75BFF01229102664863
:1024B000FEF769F861480121001F817004E05F4860
:1024C000001F80780028E6D099F80000012865D127
:1024D00020215846FEF752F801285FD1BAF1000FCB
:1024E0000CD05BE04620FFF77FFE4FF44870FDF70D
:1024F00037FF52490120091F487004E04F48001F70
:1025000040780028EED04620FFF76EFE4021584666
:10251000FEF734F8012803D10021D22001F0CAFFD0
:1025200002215846FEF72AF8012803D10021D220C3
:1025300001F0A2FF40215846FEF720F801280ED1F5
:1025400002215846FEF71AF8012808D13220FDF77B
:1025500007FF02F005F84FF42F70FDF701FF04218B
:102560005846FEF70BF801280BD008215846FEF715
:1025700005F8012805D010215846FDF7FFFF012876
:102580000CD101F0B5FF0122D1022F48FDF7FBFF6E
:102590004FF0010A4FF47A70FDF7E2FE2021584611
:1025A000FDF7ECFF18B9BAF1010F00D115B1012DFB
:1025B00013D040E000224FF400612348FDF7E3FF11
:1025C0004FF4FA70FDF7CCFE8021084601F0AAFF17
:1025D0004FF49660FDF7C4FE012566BB4620FFF769
:1025E00003FE40215846FDF7C9FF01280FD1022103
:1025F0005846FDF7C3FF012809D15020FDF7B0FE72
:1026000001F0CEFF4FF41670FDF7AAFE012640211F
:102610005846FDF7B3FF012803D10021D22001F075
:1026200049FF02215846FDF7A9FF012803D10021E7
:10263000D22001F021FF012E40D10BE00B00002041
:10264000C80000200C01002000180140001C0140BF
:10265000000000204620FFF7C7FD40215846FDF747
:102660008DFF012803D10021D22001F023FF022198
:102670005846FDF783FF012803D10021D22001F045
:10268000FBFE04215846FDF779FF01280BD00821F5
:102690005846FDF773FF012805D010215846FDF775
:1026A0006DFF01280AD101F023FF01221103FE482A
:1026B000FDF769FF42F22830FDF752FEFB48007833
:1026C000032813D076E200224FF48061F648FDF72C
:1026D0005AFF4FF4FA70FDF743FE01229102F248CF
:1026E000FDF751FF012089F8020005E0DFF8C093F3
:1026F00099F802000028E6D0EC480078032806D1BB
:1027000020215846FDF73AFF012800D16CB1012C79
:102710003FD05CE04620FFF767FD4FF44870FDF7BF
:102720001FFE012189F8011003E099F8010000283B
:10273000F0D06E20FFF758FD40215846FDF71EFFF0
:10274000012803D13221822001F0B4FE0221584633
:10275000FDF714FF012803D13221822001F08CFE05
:10276000D448007898BB40215846FDF707FF012860
:102770002DD102215846FDF701FF012827D1012460
:102780006E20FFF731FD40F25460FDF7E9FD01F0E6
:10279000AFFEC8480078D0B900208146FFF706FD9B
:1027A0000C20FDF7DDFD09F10100C0B28146502883
:1027B000F4D300204FEA0009FFF716FD0C20FDF7C7
:1027C000CFFD09F10100C0B281465028F4D3DFF8F3
:1027D000E49299F80000012879D1012C7ED100986B
:1027E000B0BBBAF1000F79D16E20FFF7FDFC40219C
:1027F0005846FDF7C3FE012803D10021C82001F08F
:1028000059FE02215846FDF7B9FE012803D10021E7
:10281000C82001F031FE40215846FDF7AFFE0128E7
:1028200010D102215846FDF7A9FE01280AD13C200B
:10283000FDF796FD01F094FE4FF47A70FDF790FDE0
:102840000120009099F80000012840D1012C45D1C9
:102850000098012842D1BAF1000F3FD1B8F1000F22
:102860003CD15020FFF7C0FC40215846FDF786FEC2
:10287000012803D10021D22001F01CFE022158467C
:10288000FDF77CFE012803D10021D22001F0F4FDE8
:1028900004215846FDF772FE01280BD00821584646
:1028A000FDF76CFE012805D010215846FDF766FEA5
:1028B00001280CD101F01CFE0122D1027A48FDF75B
:1028C00062FE4FF0010A4FF47A70FDF749FD99F866
:1028D000000002287BD1012C79D100E077E000983C
:1028E000B0BBBAF1000F72D16E20FFF77DFC402122
:1028F0005846FDF743FE012803D10021C82001F00E
:10290000D9FD02215846FDF739FE012803D10021E7
:10291000C82001F0B1FD40215846FDF72FFE0128E7
:1029200010D102215846FDF729FE01280AD13C208A
:10293000FDF716FD01F034FE40F2EE20FDF710FD2C
:102940000120009099F80000022840D1012C3ED1CE
:10295000009801283BD1BAF1000F38D1B8F1000F2F
:1029600035D15020FFF740FC40215846FDF706FEC8
:10297000012803D10021D22001F09CFD02215846FC
:10298000FDF7FCFD012803D10021D22001F074FDE8
:1029900004215846FDF7F2FD01280BD008215846C6
:1029A000FDF7ECFD012805D010215846FDF7E6FDA6
:1029B00001280CD101F09CFD0122D1023A48FDF71B
:1029C000E2FD4FF0010A4FF47A70FDF7C9FC2021B7
:1029D0005846FDF7D3FDB0B9BAF1010F13D195B93F
:1029E00000224FF400613048FDF7CDFD4FF4FA703E
:1029F000FDF7B6FC80210125084601F093FD4FF458
:102A00009660FDF7ADFC99F8000002282FD1012D4A
:102A100063D1B8F1000F60D16E20FFF7E5FB4021D4
:102A20005846FDF7ABFD012803D10021D22001F06B
:102A300041FD02215846FDF7A1FD012803D10021E7
:102A4000D22001F019FD40215846FDF797FD0128DD
:102A50000DD102215846FDF791FD012807D101F063
:102A60007FFD40F25230FDF77BFC0126B04699F81D
:102A70000000012831D1012D2FD1B8F1000F2CD148
:102A80006E20FFF7B1FB4021D9465846FDF776FD91
:102A9000012803D10021D22001F00CFD022148467B
:102AA000FDF76CFD012807E0001801400000002040
:102AB000070000200100002003D10021D22001F0F6
:102AC000DBFC40214846FDF759FD012805D10221D4
:102AD0004846FDF753FD012802D0012E08D069E0D9
:102AE00001F05EFD4FF44870FDF73AFC0126B04658
:102AF00037BBB8F1010F5DD16E20FFF775FB4021A8
:102B00005846FDF73BFD012803D10021D22001F0FA
:102B1000D1FC02215846FDF731FD012803D10021E7
:102B2000D22001F0A9FC40215846FDF727FD0128DD
:102B300040D102215846FDF721FD012800D101278F
:102B4000012F37D1B8F1010F34D15A20FFF74CFBD8
:102B50004021D9465846FDF711FD012803D1002137
:102B6000D22001F0A7FC02214846FDF707FD01280D
:102B700003D10021D22001F07FFC04214846FDF75B
:102B8000FDFC01280BD008214846FDF7F7FC012881
:102B900005D010214846FDF7F1FC01280AD101F0CB
:102BA000A7FC01221103FE48FDF7EDFC42F228309C
:102BB000FDF7D6FBFB480078042813D076E200220C
:102BC0004FF48061F648FDF7DEFC4FF4FA70FDF734
:102BD000C7FB01229102F248FDF7D5FC012189F8DB
:102BE000021005E0DFF8C09399F802000028E6D053
:102BF000EC480078042806D120215846FDF7BEFC99
:102C0000012800D16CB1012C3FD05CE04620FFF7D9
:102C1000EBFA4FF44870FDF7A3FB012089F801009F
:102C200003E099F801000028F0D06E20FFF7DCFAED
:102C300040215846FDF7A2FC012803D13221822011
:102C400001F038FC02215846FDF798FC012803D119
:102C50003221822001F010FCD448007898BB40213A
:102C60005846FDF78BFC01282DD102215846FDF76F
:102C700085FC012827D101246E20FFF7B5FA40F228
:102C80005460FDF76DFB01F033FCC8480078D0B903
:102C900000208146FFF78AFA0C20FDF761FB09F15D
:102CA0000100C0B281465028F4D300204FEA000949
:102CB000FFF79AFA0C20FDF753FB09F10100C0B2AF
:102CC00081465028F4D3DFF8E49299F800000128F7
:102CD00079D1012C7ED10098B0BBBAF1000F79D127
:102CE0006E20FFF781FA40215846FDF747FC012886
:102CF00003D10021C82001F0DDFB02215846FDF779
:102D00003DFC012803D10021C82001F0B5FB402182
:102D10005846FDF733FC012810D102215846FDF733
:102D20002DFC01280AD13C20FDF71AFB01F018FC0C
:102D30004FF47A70FDF714FB0120009099F8000021
:102D4000012840D1012C45D10098012842D1BAF187
:102D5000000F3FD1B8F1000F3CD15020FFF744FAEB
:102D600040215846FDF70AFC012803D10021D2205A
:102D700001F0A0FB02215846FDF700FC012803D119
:102D80000021D22001F078FB04215846FDF7F6FB24
:102D900001280BD008215846FDF7F0FB012805D08B
:102DA00010215846FDF7EAFB01280CD101F0A0FBE9
:102DB0000122D1027A48FDF7E6FB4FF0010A4FF4F9
:102DC0007A70FDF7CDFA99F8000002287BD1012C2A
:102DD00079D100E077E00098B0BBBAF1000F72D172
:102DE0006E20FFF701FA40215846FDF7C7FB012886
:102DF00003D10021C82001F05DFB02215846FDF7F8
:102E0000BDFB012803D10021C82001F035FB402182
:102E10005846FDF7B3FB012810D102215846FDF7B3
:102E2000ADFB01280AD13C20FDF79AFA01F0B8FB6E
:102E300040F2EE20FDF794FA0120009099F800008E
:102E4000022840D1012C3ED1009801283BD1BAF193
:102E5000000F38D1B8F1000F35D15020FFF7C4F979
:102E600040215846FDF78AFB012803D10021D220DA
:102E700001F020FB02215846FDF780FB012803D119
:102E80000021D22001F0F8FA04215846FDF776FB24
:102E900001280BD008215846FDF770FB012805D00A
:102EA00010215846FDF76AFB01280CD101F020FBE8
:102EB0000122D1023A48FDF766FB4FF0010A4FF4B8
:102EC0007A70FDF74DFA20215846FDF757FBB0B94F
:102ED000BAF1010F13D195B900224FF400613048C7
:102EE000FDF751FB4FF4FA70FDF73AFA8021012506
:102EF000084601F017FB40F21450FDF731FA99F83B
:102F0000000002282FD1012D63D1B8F1000F60D14C
:102F10006E20FFF769F940215846FDF72FFB012885
:102F200003D10021D22001F0C5FA02215846FDF755
:102F300025FB012803D10021D22001F09DFA402178
:102F40005846FDF71BFB01280DD102215846FDF71D
:102F500015FB012807D101F003FB4FF46170FDF769
:102F6000FFF90126B04699F80000012831D1012D62
:102F70002FD1B8F1000F2CD16E20FFF735F9402189
:102F8000D9465846FDF7FAFA012803D10021D2208C
:102F900001F090FA02214846FDF7F0FA012807E017
:102FA0000018014000000020070000200100002060
:102FB00003D10021D22001F05FFA40214846FDF7FD
:102FC000DDFA012805D102214846FDF7D7FA01288C
:102FD00002D0012E08D069E001F0E2FA40F2EE20C2
:102FE000FDF7BEF90126B04637BBB8F1010F5DD140
:102FF0006E20FFF7F9F840215846FDF7BFFA012887
:1030000003D10021D22001F055FA02215846FDF7E4
:10301000B5FA012803D10021D22001F02DFA402178
:103020005846FDF7ABFA012840D102215846FDF77A
:10303000A5FA012800D10127012F37D1B8F1010FDE
:1030400034D15A20FFF7D0F84021D9465846FDF731
:1030500095FA012803D10021D22001F02BFA022198
:103060004846FDF78BFA012803D10021D22001F058
:1030700003FA04214846FDF781FA01280BD0082104
:103080004846FDF77BFA012805D010214846FDF798
:1030900075FA01280AD101F02BFA01221103FE482A
:1030A000FDF771FA42F22830FDF75AF9FB48007833
:1030B000052813D071E200224FF48061F648FDF735
:1030C00062FA4FF4FA70FDF74BF901229102F248CF
:1030D000FDF759FA012089F8020005E0DFF8C093F6
:1030E00099F802000028E6D0EC480078052806D1BF
:1030F00020215846FDF742FA012800D16CB1012C7D
:103100003FD05CE04620FFF76FF84FF44870FDF7C2
:1031100027F9012089F8010003E099F8010000284F
:10312000F0D06E20FFF760F840215846FDF726FAF0
:10313000012803D13221822001F0BCF90221584636
:10314000FDF71CFA012803D13221822001F094F905
:10315000D448007898BB40215846FDF70FFA012863
:103160002DD102215846FDF709FA012827D1012463
:103170006E20FFF739F840F25460FDF7F1F801F0E6
:10318000B7F9C8480078D0B900208146FFF70EF89B
:103190000C20FDF7E5F809F10100C0B28146502886
:1031A000F4D300204FEA0009FFF71EF80C20FDF7CA
:1031B000D7F809F10100C0B281465028F4D3DFF8F6
:1031C000E49299F80000012879D1012C7ED1009871
:1031D000B0BBBAF1000F79D16E20FFF705F840219E
:1031E0005846FDF7CBF9012803D10021C82001F092
:1031F00061F902215846FDF7C1F9012803D10021E8
:10320000C82001F039F940215846FDF7B7F90128E7
:1032100010D102215846FDF7B1F901280AD13C200E
:10322000FDF79EF801F09CF94FF47A70FDF798F8DD
:103230000120009099F80000012840D1012C45D1CF
:103240000098012842D1BAF1000F3FD1B8F1000F28
:103250003CD15020FEF7C8FF40215846FDF78EF9BB
:10326000012803D10021D22001F024F9022158467F
:10327000FDF784F9012803D10021D22001F0FCF8E8
:1032800004215846FDF77AF901280BD00821584649
:10329000FDF774F9012805D010215846FDF76EF9A5
:1032A00001280CD101F024F90122D1027A48FDF75E
:1032B0006AF94FF0010A4FF47A70FDF751F899F866
:1032C000000002287BD1012C79D100E077E0009842
:1032D000B0BBBAF1000F72D16E20FEF785FF40211E
:1032E0005846FDF74BF9012803D10021C82001F011
:1032F000E1F802215846FDF741F9012803D10021E8
:10330000C82001F0B9F840215846FDF737F90128E7
:1033100010D102215846FDF731F901280AD13C208D
:10332000FDF71EF801F03CF940F2EE20FDF718F829
:103330000120009099F80000022840D1012C3ED1D4
:10334000009801283BD1BAF1000F38D1B8F1000F35
:1033500035D15020FEF748FF40215846FDF70EF9C1
:10336000012803D10021D22001F0A4F802215846FF
:10337000FDF704F9012803D10021D22001F07CF8E7
:1033800004215846FDF7FAF801280BD008215846C9
:10339000FDF7F4F8012805D010215846FDF7EEF8A6
:1033A00001280CD101F0A4F80122D1023A48FDF71E
:1033B000EAF84FF0010A4FF47A70FCF7D1FF2021B0
:1033C0005846FDF7DBF890B9BAF1010F0FD175B986
:1033D00000224FF400613048FDF7D5F88021012527
:1033E000084601F09FF840F2DC50FCF7B9FF99F86D
:1033F000000002282FD1012D62D1B8F1000F5FD15A
:103400006E20FEF7F1FE40215846FDF7B7F801287F
:1034100003D10021D22001F04DF802215846FDF7DA
:10342000ADF8012803D10021D22001F025F8402178
:103430005846FDF7A3F801280DD102215846FDF7A3
:103440009DF8012807D101F08BF840F25230FCF7CB
:1034500087FF0126B04699F80000012830D1012DE0
:103460002ED1B8F1000F2BD16E20FEF7BDFE40210A
:103470005846FDF783F8012803D10021D22001F03E
:1034800019F802215846FDF779F8012803D10021E7
:10349000D22000F0F1FF07E00018014000000020FA
:1034A000070000200100002040215846FDF766F883
:1034B000012805D102215846FDF760F8012802D005
:1034C000012E08D069E001F06BF840F25230FCF7B1
:1034D00047FF0126B04637BBB8F1010F5DD16E2022
:1034E000FEF782FE40215846FDF748F8012803D137
:1034F0000021D22000F0DEFF02215846FDF73EF801
:10350000012803D10021D22000F0B6FF4021584607
:10351000FDF734F8012840D102215846FDF72EF876
:10352000012800D10127012F37D1B8F1010F34D183
:103530005A20FEF759FE4021D9465846FDF71EF89D
:10354000012803D10021D22000F0B4FF0221484617
:10355000FDF714F8012803D10021D22000F08CFFE0
:1035600004214846FDF70AF801280BD008214846F7
:10357000FDF704F8012805D010214846FCF7FEFFAE
:1035800001280AD100F0B4FF01221103FE48FCF724
:10359000FAFF42F22830FCF7E3FEFC4800780628E8
:1035A00013D071E200224FF48061F748FCF7EBFF83
:1035B0004FF4FA70FCF7D4FE01229102F248FCF7B6
:1035C000E2FF012089F8020005E0DFF8C49399F8D2
:1035D00002000028E6D0ED480078062806D1202118
:1035E0005846FCF7CBFF012800D16CB1012C3FD02D
:1035F0005DE04620FEF7F8FD4FF44870FCF7B0FEA2
:10360000012189F8011003E099F801000028F0D0A9
:103610006E20FEF7E9FD40215846FCF7AFFF012878
:1036200003D13221822000F045FF02215846FCF7E9
:10363000A5FF012803D13221822000F01DFFD548CB
:103640000078A0BB40215846FCF798FF01282ED1F6
:1036500002215846FCF792FF012828D101246E2050
:10366000FEF7C2FD40F25460FCF77AFE00F040FF26
:10367000C8480078D8B900204FEA0009FEF796FD47
:103680000C20FCF76DFE09F10100C0B28146502804
:10369000F4D300204FEA0009FEF7A6FD0C20FCF74A
:1036A0005FFE09F10100C0B281465028F4D3DFF873
:1036B000E49299F80000012879D1012C7ED100987C
:1036C000B0BBBAF1000F79D16E20FEF78DFD40211D
:1036D0005846FCF753FF012803D10021C82000F011
:1036E000E9FE02215846FCF749FF012803D10021D9
:1036F000C82000F0C1FE40215846FCF73FFF0128DA
:1037000010D102215846FCF739FF01280AD13C208C
:10371000FCF726FE00F024FF4FF47A70FCF720FE41
:103720000120009099F80000012840D1012C45D1DA
:103730000098012842D1BAF1000F3FD1B8F1000F33
:103740003CD15020FEF750FD40215846FCF716FFB3
:10375000012803D10021D22000F0ACFE02215846FE
:10376000FCF70CFF012803D10021D22000F084FED9
:1037700004215846FCF702FF01280BD008215846C7
:10378000FCF7FCFE012805D010215846FCF7F6FE98
:1037900001280CD100F0ACFE0122D1027A48FCF7DE
:1037A000F2FE4FF0010A4FF47A70FCF7D9FD99F858
:1037B000000002287BD1012C79D100E077E000984D
:1037C000B0BBBAF1000F72D16E20FEF70DFD4021A3
:1037D0005846FCF7D3FE012803D10021C82000F091
:1037E00069FE02215846FCF7C9FE012803D10021D9
:1037F000C82000F041FE40215846FCF7BFFE0128DA
:1038000010D102215846FCF7B9FE01280AD13C200C
:10381000FCF7A6FD00F0C4FE4FF44870FCF7A0FDD5
:103820000120009099F80000022840D1012C3ED1DF
:10383000009801283BD1BAF1000F38D1B8F1000F40
:1038400035D15020FEF7D0FC40215846FCF796FEBB
:10385000012803D10021D22000F02CFE022158467D
:10386000FCF78CFE012803D10021D22000F004FED9
:1038700004215846FCF782FE01280BD00821584647
:10388000FCF77CFE012805D010215846FCF776FE97
:1038900001280CD100F02CFE0122D1023A48FCF79D
:1038A00072FE4FF0010A4FF47A70FCF759FD2021A7
:1038B0005846FCF763FE90B9BAF1010F0FD175B904
:1038C00000224FF400613048FCF75DFE80210125A5
:1038D000084600F027FE40F2DC50FCF741FD99F865
:1038E000000002282FD1012D62D1B8F1000F5FD165
:1038F0006E20FEF779FC40215846FCF73FFE012878
:1039000003D10021D22000F0D5FD02215846FCF75A
:1039100035FE012803D10021D22000F0ADFD402169
:103920005846FCF72BFE01280DD102215846FCF722
:1039300025FE012807D100F013FE4FF46170FCF75B
:103940000FFD0126B04699F80000012830D1012D65
:103950002ED1B8F1000F2BD16E20FEF745FC40218F
:103960005846FCF70BFE012803D10021D22000F0BD
:10397000A1FD02215846FCF701FE012803D10021D8
:10398000D22000F079FD07E000180140000000207F
:10399000070000200100002040215846FCF7EEFD02
:1039A000012805D102215846FCF7E8FD012802D084
:1039B000012E08D068E000F0F3FD4FF46170FCF7D1
:1039C000CFFC0126B04637BBB8F1010F5CD18C208B
:1039D000FEF70AFC40215846FCF7D0FD012803D130
:1039E0000021D22000F066FD02215846FCF7C6FDFA
:1039F000012803D10021D22000F03EFD402158468D
:103A0000FCF7BCFD01283FD102215846FCF7B6FD6A
:103A1000012800D10127012F36D1B8F1010F33D190
:103A20005A20FEF7E1FB40215846FCF7A7FD01288C
:103A300003D10021D22000F03DFD02215846FCF7C1
:103A40009DFD012803D10021D22000F015FD0421A5
:103A50005846FCF793FD01280BD008215846FCF787
:103A60008DFD012805D010215846FCF787FD01285F
:103A70000AD100F03DFD01221103FE48FCF783FD51
:103A800042F22830FCF76CFCFB480078072813D082
:103A900072E200224FF48061F648FCF774FD4FF4A7
:103AA000FA70FCF75DFC01229102F248FCF76BFD15
:103AB000012089F8020005E0DFF8C09399F80200C0
:103AC0000028E6D0EC480078072806D12021584687
:103AD000FCF754FD012800D16CB1012C3FD05CE013
:103AE0004620FEF781FB4FF44870FCF739FC0120BB
:103AF00089F8010003E099F801000028F0D06E2059
:103B0000FEF772FB40215846FCF738FD012803D12F
:103B10003221822000F0CEFC02215846FCF72EFD17
:103B2000012803D13221822000F0A6FCD44800787D
:103B300098BB40215846FCF721FD01282DD10221D8
:103B40005846FCF71BFD012827D101246E20FEF703
:103B50004BFB40F25460FCF703FC00F0C9FCC84882
:103B60000078D0B900208146FEF720FB0C20FCF73E
:103B7000F7FB09F10100C0B281465028F4D30020C0
:103B80004FEA0009FEF730FB0C20FCF7E9FB09F1D6
:103B90000100C0B281465028F4D3DFF8E49299F8CE
:103BA0000000012879D1012C7ED10098B0BBBAF178
:103BB000000F79D16E20FEF717FB40215846FCF725
:103BC000DDFC012803D10021C82000F073FC022194
:103BD0005846FCF7D3FC012803D10021C82000F08F
:103BE0004BFC40215846FCF7C9FC012810D10221AA
:103BF0005846FCF7C3FC01280AD13C20FCF7B0FB77
:103C000000F0AEFC4FF47A70FCF7AAFB01200090A4
:103C100099F80000012840D1012C45D100980128D5
:103C200042D1BAF1000F3FD1B8F1000F3CD1502082
:103C3000FEF7DAFA40215846FCF7A0FC012803D130
:103C40000021D22000F036FC02215846FCF796FCF9
:103C5000012803D10021D22000F00EFC0421584697
:103C6000FCF78CFC01280BD008215846FCF786FC99
:103C7000012805D010215846FCF780FC01280CD102
:103C800000F036FC0122D1027A48FCF77CFC4FF0B0
:103C9000010A4FF47A70FCF763FB99F800000228E0
:103CA0007BD1012C79D100E077E00098B0BBBAF16C
:103CB000000F72D16E20FEF797FA40215846FCF7AC
:103CC0005DFC012803D10021C82000F0F3FB022194
:103CD0005846FCF753FC012803D10021C82000F00E
:103CE000CBFB40215846FCF749FC012810D10221AA
:103CF0005846FCF743FC01280AD13C20FCF730FB76
:103D000000F04EFC4FF44870FCF72AFB01200090B5
:103D100099F80000022840D1012C3ED100980128DA
:103D20003BD1BAF1000F38D1B8F1000F35D1502096
:103D3000FEF75AFA40215846FCF720FC012803D12F
:103D40000021D22000F0B6FB02215846FCF716FCF9
:103D5000012803D10021D22000F08EFB0421584617
:103D6000FCF70CFC01280BD008215846FCF706FC98
:103D7000012805D010215846FCF700FC01280CD181
:103D800000F0B6FB0122D1023A48FCF7FCFB4FF0F1
:103D9000010A4FF47A70FCF7E3FA20215846FCF749
:103DA000EDFB90B9BAF1010F0FD175B900224FF4B4
:103DB00000613048FCF7E7FB80210125084600F050
:103DC000B1FB40F2DC50FCF7CBFA99F80000022876
:103DD0002FD1012D64D1B8F1000F61D16E20FEF713
:103DE00003FA40215846FCF7C9FB012803D1002102
:103DF000D22000F05FFB02215846FCF7BFFB0128F0
:103E000003D10021D22000F037FB40215846FCF7B7
:103E1000B5FB01280DD102215846FCF7AFFB012864
:103E200007D100F09DFB4FF46170FCF799FA012671
:103E3000B04699F80000012832D1012D30D1B8F1F7
:103E4000000F2DD16E20FEF7CFF94021D9465846FC
:103E5000FCF794FB012803D10021D22000F02AFBBB
:103E600002214846FCF78AFB01280DD10021D2200F
:103E700008E00000001801400000002007000020BA
:103E80000100002000F0F8FA40214846FCF776FBDC
:103E9000012805D102214846FCF770FB012802D019
:103EA000012E08D068E000F07BFB4FF46170FCF756
:103EB00057FA0126B04637BBB8F1010F5CD18C2010
:103EC000FEF792F940215846FCF758FB012803D130
:103ED0000021D22000F0EEFA02215846FCF74EFBFA
:103EE000012803D10021D22000F0C6FA4021584613
:103EF000FCF744FB01283FD102215846FCF73EFB6A
:103F0000012800D10127012F36D1B8F1010F33D19B
:103F10005A20FEF769F940215846FCF72FFB01288B
:103F200003D10021D22000F0C5FA02215846FCF747
:103F300025FB012803D10021D22000F09DFA0421A5
:103F40005846FCF71BFB01280BD008215846FCF70C
:103F500015FB012805D010215846FCF70FFB01285E
:103F60000AD100F0C5FA01221103FE48FCF70BFB51
:103F700042F22830FCF7F4F9DFF8EC9399F80000EE
:103F800008287EF479A9F948807820B199F80000D2
:103F9000082813D019E000224FF48061F148FCF7A3
:103FA000F2FA4FF4FA70FCF7DBF901229102ED48C6
:103FB000FCF7E9FAED4901208870E7E7202158462F
:103FC000FCF7DCFA012800D16CB1012C41D05EE095
:103FD0004620FEF709F94FF44870FCF7C1F90120BB
:103FE00089F8010005E0DFF8849399F801000028C2
:103FF000EED06E20FEF7F8F840215846FCF7BEFAE6
:10400000012803D13221822000F054FA02215846BF
:10401000FCF7B4FA012803D13221822000F02CFAF7
:10402000D348007898BB40215846FCF7A7FA0128EE
:104030002DD102215846FCF7A1FA012827D10124ED
:104040006E20FEF7D1F840F25460FCF789F900F0D9
:104050004FFAC7480078D0B900208146FEF7A6F88D
:104060000C20FCF77DF909F10100C0B2814650280F
:10407000F4D300204FEA0009FEF7B6F80C20FCF755
:104080006FF909F10100C0B281465028F4D3DFF87E
:10409000E09299F80000012879D1012C7ED1009896
:1040A000B0BBBAF1000F79D16E20FEF79DF8402128
:1040B0005846FCF763FA012803D10021C82000F01C
:1040C000F9F902215846FCF759FA012803D10021D9
:1040D000C82000F0D1F940215846FCF74FFA0128DA
:1040E00010D102215846FCF749FA01280AD13C2098
:1040F000FCF736F900F034FA4FF47A70FCF730F937
:104100000120009099F80000012840D1012C45D1F0
:104110000098012842D1BAF1000F3FD1B8F1000F49
:104120003CD15020FEF760F840215846FCF726FAB3
:10413000012803D10021D22000F0BCF90221584609
:10414000FCF71CFA012803D10021D22000F094F9D9
:1041500004215846FCF712FA01280BD008215846D2
:10416000FCF70CFA012805D010215846FCF706FA96
:1041700001280CD100F0BCF90122D1027948FCF7EA
:1041800002FA4FF0010A4FF47A70FCF7E9F899F857
:10419000000002287BD1012C79D100E077E0009863
:1041A000B0BBBAF1000F72D16E20FEF71DF84021AE
:1041B0005846FCF7E3F9012803D10021C82000F09C
:1041C00079F902215846FCF7D9F9012803D10021D9
:1041D000C82000F051F940215846FCF7CFF90128DA
:1041E00010D102215846FCF7C9F901280AD13C2018
:1041F000FCF7B6F800F0D4F94FF44870FCF7B0F8CB
:104200000120009099F80000022840D1012C3ED1F5
:10421000009801283BD1BAF1000F38D1B8F1000F56
:1042200035D15020FDF7E0FF40215846FCF7A6F9B4
:10423000012803D10021D22000F03CF90221584688
:10424000FCF79CF9012803D10021D22000F014F9D9
:1042500004215846FCF792F901280BD00821584652
:10426000FCF78CF9012805D010215846FCF786F997
:1042700001280CD100F03CF90122D1023948FCF7A9
:1042800082F94FF0010A4FF47A70FCF769F82021A7
:104290005846FCF773F990B9BAF1010F0FD175B90F
:1042A00000224FF400612F48FCF76DF980210125B1
:1042B000084600F037F940F2DC50FCF751F899F865
:1042C000000002282FD1012D62D1B8F1000F5FD17B
:1042D0006E20FDF789FF40215846FCF74FF9012871
:1042E00003D10021D22000F0E5F802215846FCF766
:1042F00045F9012803D10021D22000F0BDF840216A
:104300005846FCF73BF901280DD102215846FCF72D
:1043100035F9012807D100F023F94FF46170FCF75B
:104320001FF80126B04699F80000012830D1012D70
:104330002ED1B8F1000F2BD16E20FDF755FF402193
:104340005846FCF71BF9012803D10021D22000F0C8
:10435000B1F802215846FCF711F901280CD10021CF
:10436000D22007E0001801400000002007000020D4
:104370000100002000F080F840215846FCF7FEF8CC
:10438000012805D102215846FCF7F8F8012804D08D
:10439000012E7DF471AF4FB12FE000F001F94FF421
:1043A0006170FBF7DDFF0126B046F4E7B8F1010FBD
:1043B000EFD18C20FDF718FF40215846FCF7DEF8BE
:1043C000012803D10021D22000F074F802215846C0
:1043D000FCF7D4F8012803D10021D22000F04CF8DA
:1043E00040215846FCF7CAF80128D2D1022158468C
:1043F000FCF7C4F8012800D10127012FC9D1B8F179
:10440000010FC6D15A20FDF7EFFE4021D94658468C
:10441000FCF7B4F8012803D10021D22000F04AF8BB
:1044200002214846FCF7AAF8012803D10021D22036
:1044300000F022F804214846FCF7A0F801280BD030
:1044400008214846FCF79AF8012805D01021484673
:10445000FCF794F801289CD100F04AF801221103DE
:104460000448FCF790F842F22830FBF779FFFDF79B
:1044700003BF00000018014010B54FF08042906368
:10448000D1630B4C002210212046FCF77CF801225E
:1044900020212046FCF777F8002240212046FCF737
:1044A00072F820460122BDE810408021FCF76BB86D
:1044B0000020014010B54FF080429163D0630B4C57
:1044C000002210212046FCF75EF801222021204620
:1044D000FCF759F8002240212046FCF754F820460A
:1044E0000122BDE810408021FCF74DB800200140BA
:1044F00010B50B4C002210212046FCF744F8002296
:1045000020212046FCF73FF8002240212046FCF7FE
:104510003AF820460022BDE810408021FCF733B86D
:104520000020014010B54FF080429063D1630B4CE6
:10453000012210212046FCF726F8002220212046E7
:10454000FCF721F8002240212046FCF71CF8204609
:104550000122BDE810408021FCF715B80020014081
:1045600010B54FF0804078218163C1630B4C01226C
:1045700010212046FCF707F8002220212046FCF7F6
:1045800002F8002240212046FBF7FDFF20460122D1
:10459000BDE810408021FBF7F6BF0000002001407D
:1045A00010B54FF0804078218163C1630B4C00222D
:1045B00010212046FBF7E7FF012220212046FBF7D0
:1045C000E2FF012240212046FBF7DDFF20460022CA
:1045D000BDE810408021FBF7D6BF0000002001405D
:1045E00000000000000000000102030406070809A3
:1045F000000000000102030418460008000000202B
:1046000024000000202000083C4600082400002070
:104610002C05000030200008000000000000000011
:104620000000000000000000010000001000000079
:0C463000000000000024F4000000000066
:0400000508000131BD
:00000001FF
